:020000040000FA
:0400000006EF00F017
:020008001000E6
:10000C00FED84BD8E9D8939A9398938093820C0E90
:10001C00086E45D81CD8142A14C00FF059D98A88F8
:10002C00010E046E32D88A98010E046E2ED8010E81
:10003C000E6EFAD88A8A010E046E27D88A9A010E9F
:10004C00046E23D80E6AF0D8E5D70300FED71592BC
:10005C00010E0D6EF4D8040E026E036A08D8800EE1
:10006C000D6EEDD8210E006E002EFED71200032A65
:10007C00040E016EA50E006E002EFED7012EFAD7CF
:10008C00022EF6D7032EF4D71200E80E026E030EE2
:10009C00036EEDDF042EF9D71200086A1200C78E2A
:1000AC00C688C69E0C0E085CD8A406D0C686C6941C
:1000BC00C692C690040EC86E0852D8A404D0C69638
:1000CC00C684C682C690030E085CD8A404D0C6961B
:1000DC00C684C682C680C68A1200C69E0BC0C9FFE3
:1000EC0027D8C5AC02D0076801D0076AC6AE04D0C9
:1000FC0008500A08D8B0F1D708500A08D8B0C688FA
:10010C00120008500A08D8B003D0C58011D802D00C
:10011C00C7A6FED7120008500A08D8B006D0C7B43C
:10012C00FED7C584C58404D802D0C7A8FED7120058
:10013C000A6A0A2AFF0E0A5CD8B008D09EB605D00F
:10014C000000000000000000F4D79E9612000F0E75
:10015C00026E036A8CDF0C6A030E0D6E70D8050EEE
:10016C00026E036A84DF030E0D6E69D8010E026EF7
:10017C00036A7DDF030E0D6E62D8010E026E036AF8
:10018C0076DF030E0D6E5BD8010E026E036A6FDF15
:10019C00020E0D6E54D8010E026E036A68DF280E33
:1001AC000D6E4DD8010E026E036A61DF0C0E0D6EE2
:1001BC0046D8010E026E036A5ADF010E0D6E3FD84F
:1001CC000F0E026E036A53DF060E0D6E38D8010E49
:1001DC00026E036A4CDF3BD70C0E086E60DF010E1B
:1001EC00116E020E026E036A42DF020E166E4E0E86
:1001FC00126EADDF162EFBD70C0E136E1200000123
:10020C008F0ED316D38CD38AD388F86AC09EC29033
:10021C00C186C184C182C180070EB46E806A816AB6
:10022C00826A836A846A12000E52D8B4116A0E0470
:10023C00D8A402D0010E116E15920D6A00D015A231
:10024C0002D00C8001D00C900C920C9611B00C8644
:10025C0058DF12C00BF041DF0C9E0DBE0C8E0C9CB7
:10026C000DBC0C8C0C9A0DBA0C8A0C980DB80C8821
:10027C000C840CC00BF031DF0C940CC00BF02DDF98
:10028C000C9E0DB60C8E0C9C0DB40C8C0C9A0DB2F5
:10029C000C8A0C980DB00C880C840CC00BF01DDF74
:1002AC000C940CC00BF019DF36DF0C0E136E060E1F
:1002BC00006E002EFED7000015B209D0100E0D5C9A
:1002CC00D8B005D00D500708D8A00DC013F01200FF
:1002DC00106A1582640E0F5CD8A00DD00FC005F00B
:1002EC00640E096E2FD805C010F000C00FF0300E50
:1002FC0010240D6EA4DF10C009F0056A1ED800C0D2
:10030C0017F00FC005F00A0E096E17D8001E175013
:10031C000010186E18A00DD00FC005F00A0E096E53
:10032C0011D805C010F000C00FF0300E10240D6E67
:10033C0086DF300E0F240D6E82D7006809500560E1
:10034C00006A12000952D8B41200006A080E046E3A
:10035C00D890053600360950005E0580D8B003D021
:0C036C00059009500026042EF3D7120063
:020000040030CA
:0E00000000481F1EFF0381FF0FC00FE00F40DE
:00000001FF
