:020000040000FA
:0400000006EF00F017
:020008001000E6
:10000C0022D96FD80DD9938093820C0E0B6E6BD8BE
:10001C00949E8B9E189047D817EEF3F00C0EF66E4C
:10002C00040EF76EDAD9F30E1A6E070E1B6E69D931
:10003C000D6A949E8B8E0D0E006E002EFED78B9E3D
:10004C00948E006A82BE001E00C01EF0006A18B0BA
:10005C00001E1E5000101F6E1FB00AD0220E006E24
:10006C00002EFED700000D2A0D28D8B41880E9D731
:10007C0018B010D018D817EEF3F01A0EF66E040E56
:10008C00F76EABD9F30E1A6E070E1B6E3AD90DC074
:10009C0011F055D918900D6AFA0E026E036A13D836
:1000AC00C8D70300FED71992010E106EE1D8040ECA
:1000BC00026E036A08D8800E106EDAD8210E006E1C
:1000CC00002EFED71200032A040E016EA50E006E40
:1000DC00002EFED7012EFAD7022EF6D7032EF4D718
:1000EC0012000B6A1200C78EC688C69E0C0E0B5CE3
:1000FC00D8A406D0C686C694C692C690040EC86E06
:10010C000B52D8A404D0C696C684C682C690030EE1
:10011C000B5CD8A404D0C696C684C682C680C68A98
:10012C001200C69E0EC0C9FF27D8C5AC02D00A6803
:10013C0001D00A6AC6AE04D00B500A08D8B0F1D769
:10014C000B500A08D8B0C68812000B500A08D8B059
:10015C0003D0C58011D802D0C7A6FED712000B5011
:10016C000A08D8B006D0C7B4FED7C584C58404D855
:10017C0002D0C7A8FED712000C6A0C2AFF0E0C5C2A
:10018C00D8B008D09EB605D00000000000000000DA
:10019C00F4D79E9612000F0E026E036A94DF0F6A5C
:1001AC00030E106E65D8050E026E036A8CDF030E0B
:1001BC00106E5ED8010E026E036A85DF030E106EA0
:1001CC0057D8010E026E036A7EDF030E106E50D8F4
:1001DC00010E026E036A77DF020E106E49D8010E13
:1001EC00026E036A70DF280E106E42D8010E026E8A
:1001FC00036A69DF0C0E106E3BD8010E026E036AA7
:10020C0062DF010E106E34D80F0E026E036A5BDFD4
:10021C00060E106E2DD8010E026E036A54DF43D702
:10022C000C0E0B6E60DF010E136E020E026E036A73
:10023C004ADF020E1D6E4E0E146EADDF1D2EFBD767
:10024C000C0E156E120000018F0ED316D38CD38AB0
:10025C00D388F86AC09EC290C186C184C182C18015
:10026C00070EB46E806A816A826A836A846A12009D
:10027C0019A202D00F8001D00F900F920F9613B0DD
:10028C000F8663DF14C00EF04CDF0F9E10BE0F8E76
:10029C000F9C10BC0F8C0F9A10BA0F8A0F9810B8C5
:1002AC000F880F840FC00EF03CDF0F940FC00EF0C0
:1002BC0038DF0F9E10B60F8E0F9C10B40F8C0F9A58
:1002CC0010B20F8A0F9810B00F880F840FC00EF069
:1002DC0028DF0F940FC00EF024DF41DF0C0E156EDB
:1002EC00060E006E002EFED7000019B209D0100EBB
:1002FC00105CD8B005D010500708D8A010C015F06D
:10030C0012001AC0E9FF1BC0EAFFEFCF16F016521D
:10031C00D8B4120019821C6A010E165CD8A00ED03B
:10032C001C2A1C501A24E96E000E1B20EA6EEFCF1B
:10033C0010F09EDF16501C5CD8A0F2D71200126A87
:10034C001982640E115CD8A00DD011C005F0640E9A
:10035C00096E2FD805C012F000C011F0300E122417
:10036C00106E86DF12C009F0056A1ED800C01EF0A0
:10037C0011C005F00A0E096E17D8001E1E50001091
:10038C001F6E1FA00DD011C005F00A0E096E11D8FA
:10039C0005C012F000C011F0300E1224106E68DF90
:1003AC00300E1124106E64D7006809500560006A85
:1003BC0012000952D8B41200006A080E046ED890CC
:1003CC00053600360950005E0580D8B003D0059084
:1003DC0009500026042EF3D712000900F5CF05F0C2
:1003EC00F5CFE7FF04D00900F550056E062605523F
:1003FC00D8B412000900F5CFE4FF052EFBD712008C
:10040C000C43617267616E646F202E2E2E000854AF
:08041C0069656D706F3A200064
:020000040030CA
:0E00000000481F1EFF0381FF0FC00FE00F40DE
:00000001FF
