:020000040000FA
:0400000006EF00F017
:020008001000E6
:10000C0044D991D82FD9938093820C0E0E6E8DD833
:10001C00948C949E8B9E1D90106A116A66D817EE74
:10002C00EAF04C0EF66E050EF76E77DAEA0E1F6EDE
:10003C00070E206E88D98B8E060E006E002EFED712
:10004C0000008B9E82BC02D00000FCD7006A82AC00
:10005C00001E00C023F0006A1DB0001E23500010CB
:10006C00256E25B014D0420E006E002EFED7000077
:10007C00102AD8B4112A10C005F011C006F0E80EF1
:10008C00096E030E0A6EFED900B01D80DFD78B8E71
:10009C001DB013D02AD817EEEAF05A0EF66E050EE4
:1000AC00F76E3BDAEA0E1F6E070E206E4CD910C0AD
:1000BC0015F011C016F065D90ED017D817EEEAF06E
:1000CC00640EF66E050EF76E28DAEA0E1F6E070E3A
:1000DC00206E39D90AD81D90106A116AFA0E026E78
:1000EC00036A13D8A8D70300FED71E92010E146E14
:1000FC00E1D8040E026E036A08D8800E146EDAD8AA
:10010C00210E006E002EFED71200032A040E016E83
:10011C00A50E006E002EFED7012EFAD7022EF6D7B2
:10012C00032EF4D712000E6A1200C78EC688C69E24
:10013C000C0E0E5CD8A406D0C686C694C692C69089
:10014C00040EC86E0E52D8A404D0C696C684C682BD
:10015C00C690030E0E5CD8A404D0C696C684C68284
:10016C00C680C68A1200C69E12C0C9FF27D8C5AC6D
:10017C0002D00D6801D00D6AC6AE04D00E500A082C
:10018C00D8B0F1D70E500A08D8B0C68812000E505D
:10019C000A08D8B003D0C58011D802D0C7A6FED7A4
:1001AC0012000E500A08D8B006D0C7B4FED7C584CA
:1001BC00C58404D802D0C7A8FED712000F6A0F2A34
:1001CC00FF0E0F5CD8B008D09EB605D00000000022
:1001DC0000000000F4D79E9612000F0E026E036A08
:1001EC0094DF136A030E146E65D8050E026E036A53
:1001FC008CDF030E146E5ED8010E026E036A85DF6F
:10020C00030E146E57D8010E026E036A7EDF030EC6
:10021C00146E50D8010E026E036A77DF020E146E54
:10022C0049D8010E026E036A70DF280E146E42D894
:10023C00010E026E036A69DF0C0E146E3BD8010EC0
:10024C00026E036A62DF010E146E34D80F0E026E5A
:10025C00036A5BDF060E146E2DD8010E026E036A64
:10026C0054DF43D70C0E0E6E60DF010E186E020EBB
:10027C00026E036A4ADF020E226E4E0E196EADDF5D
:10028C00222EFBD70C0E1A6E120000018F0ED31605
:10029C00D38CD38AD388F86AC09EC290C186C1849D
:1002AC00C182C180070EB46E806A816A826A836AD9
:1002BC00846A12001EA202D0138001D013901392F4
:1002CC00139618B0138663DF19C012F04CDF139E1F
:1002DC0014BE138E139C14BC138C139A14BA138A69
:1002EC00139814B81388138413C012F03CDF1394C2
:1002FC0013C012F038DF139E14B6138E139C14B473
:10030C00138C139A14B2138A139814B01388138491
:10031C0013C012F028DF139413C012F024DF41DF56
:10032C000C0E1A6E060E006E002EFED700001EB2CA
:10033C0009D0100E145CD8B005D014500708D8A002
:10034C0014C01AF012001FC0E9FF20C0EAFFEFCF63
:10035C001BF01B52D8B412001E82216A010E1B5CCA
:10036C00D8A00ED0212A21501F24E96E000E202087
:10037C00EA6EEFCF14F09EDF1B50215CD8A0F2D7B1
:10038C0012001E82176A15C005F016C006F0100E7A
:10039C00096E270E0A6E7FD8001E00A014D015C05F
:1003AC0005F016C006F0100E096E270E0A6E81D8E5
:1003BC0005C017F000C015F001C016F0300E172460
:1003CC00146E78DF0CD015C005F016C006F0E80EE0
:1003DC00096E030E0A6E5FD8001E00A014D015C063
:1003EC0005F016C006F0E80E096E030E0A6E61D811
:1003FC0005C017F000C015F001C016F0300E172420
:10040C00146E58DF0BD015C005F016C006F0640E44
:10041C00096E0A6A40D8001E00A013D015C005F062
:10042C0016C006F0640E096E0A6A43D805C017F0B0
:10043C0000C015F001C016F0300E1724146E3ADF10
:10044C000BD015C005F016C006F00A0E096E0A6A2C
:10045C0022D8001E00A012D015C005F016C006F060
:10046C000A0E096E0A6A25D805C017F000C015F0EF
:10047C0001C016F0300E1724146E1CDF300E15243C
:10048C00146E18D7006A0950056212000A500662F1
:10049C00120000681200006A06500A5CD8A0120014
:1004AC000A50065C04E30950055CD8B01200001E2B
:1004BC00120005C007F006C008F009C00BF00AC016
:1004CC000CF0026A036A0BC005F00CC006F0096A56
:1004DC000A6AD8DF00A003D0056A066A1200100E63
:1004EC00046ED89007360836023603360B50025E7F
:1004FC000C50035A0780D8B005D007900B50022639
:10050C000C500322042EEDD707C005F008C006F0EE
:10051C0002C000F003C001F012000900F5CF05F095
:10052C00F5CFE7FF04D00900F550056E06260552FD
:10053C00D8B412000900F5CFE4FF052EFBD712004A
:10054C000C43617267616E646F202E2E2E0008546E
:10055C0069656D706F3A2000154572726F722C20B0
:0E056C00616C676F2065737461206D616C2E89
:020000040030CA
:0E00000000481F1EFF0381FF0FC00FE00F40DE
:00000001FF
