:020000040000FA
:0400000006EF00F017
:020008001000E6
:10000C005BD9A8D846D9938093820C0E0B6EA4D8DA
:10001C00948C949E92809292928492969288929AC8
:10002C00928C929E928094909482949438D817EEED
:10003C00F3F07E0EF66E040EF76E08DAF30E196E00
:10004C00070E1A6E97D9179082BE1780179282BC32
:10005C00178235D820C01FF022D817EEF3F08C0E83
:10006C00F66E040EF76EF2D9F30E196E070E1A6EB9
:10007C0081D91FC010F09CD917EEF3F0980EF66ED4
:10008C00040EF76EE3D9F30E196E070E1A6E72D9C1
:10009C00FA0E026E036A50D8D6D70300FED7189218
:1000AC00010E0F6E1ED9040E026E036A45D8800E27
:1000BC000F6E17D9210E006E002EFED7120017946A
:1000CC001780060E006E002EFED70000179017A2A8
:1000DC00D8A4001E00C01DF0006A17B4001E1D50ED
:1000EC0000101E6E1EB00DD0010E026E036A24D8D5
:1000FC00202A640E205CD8A402D01784206800004B
:10010C00E6D7206A17B2D8A4001E00C01DF0006A02
:10011C0017B4001E1D5000101E6E1EB009D0250E07
:10012C00006E002EFED7202A2028D8B41784EAD7D8
:10013C00178017B420681200032A040E016EA50E56
:10014C00006E002EFED7012EFAD7022EF6D7032E04
:10015C00F4D712000B6A1200C78EC688C69E0C0E0E
:10016C000B5CD8A406D0C686C694C692C690040E64
:10017C00C86E0B52D8A404D0C696C684C682C6904C
:10018C00030E0B5CD8A404D0C696C684C682C68067
:10019C00C68A1200C69E0DC0C9FF27D8C5AC02D0B6
:1001AC000A6801D00A6AC6AE04D00B500A08D8B04F
:1001BC00F1D70B500A08D8B0C68812000B500A08A9
:1001CC00D8B003D0C58011D802D0C7A6FED7120074
:1001DC000B500A08D8B006D0C7B4FED7C584C58466
:1001EC0004D802D0C7A8FED712000C6A0C2AFF0E46
:1001FC000C5CD8B008D09EB605D000000000000002
:10020C000000F4D79E9612000F0E026E036A94DF64
:10021C000E6A030E0F6E65D8050E026E036A8CDF34
:10022C00030E0F6E5ED8010E026E036A85DF030E9D
:10023C000F6E57D8010E026E036A7EDF030E0F6E2F
:10024C0050D8010E026E036A77DF020E0F6E49D88A
:10025C00010E026E036A70DF280E0F6E42D8010E7B
:10026C00026E036A69DF0C0E0F6E3BD8010E026E34
:10027C00036A62DF010E0F6E34D80F0E026E036A32
:10028C005BDF060E0F6E2DD8010E026E036A54DF73
:10029C0006D70C0E0B6E60DF010E126E020E026E94
:1002AC00036A4ADF020E1C6E4E0E136EADDF1C2E5F
:1002BC00FBD70C0E146E120000018F0ED316D38CCC
:1002CC00D38AD388F86AC09EC290C186C184C18289
:1002DC00C180070EB46E806A816A826A836A846AFE
:1002EC00120018A202D00E8001D00E900E920E9623
:1002FC0012B00E8663DF13C00DF04CDF0E9E0FBEE6
:10030C000E8E0E9C0FBC0E8C0E9A0FBA0E8A0E9887
:10031C000FB80E880E840EC00DF03CDF0E940EC08C
:10032C000DF038DF0E9E0FB60E8E0E9C0FB40E8C99
:10033C000E9A0FB20E8A0E980FB00E880E840EC055
:10034C000DF028DF0E940EC00DF024DF41DF0C0EF3
:10035C00146E060E006E002EFED7000018B209D0E7
:10036C00100E0F5CD8B005D00F500708D8A00FC0E6
:10037C0014F0120019C0E9FF1AC0EAFFEFCF15F014
:10038C001552D8B4120018821B6A010E155CD8A045
:10039C000ED01B2A1B501924E96E000E1A20EA6E8F
:1003AC00EFCF0FF09EDF15501B5CD8A0F2D71200D8
:1003BC00116A1882640E105CD8A00DD010C005F024
:1003CC00640E096E2FD805C011F000C010F0300E6D
:1003DC0011240F6E86DF11C009F0056A1ED800C00B
:1003EC001DF010C005F00A0E096E17D8001E1D5026
:1003FC0000101E6E1EA00DD010C005F00A0E096E66
:10040C0011D805C011F000C010F0300E11240F6E81
:10041C0068DF300E10240F6E64D700680950056039
:10042C00006A12000952D8B41200006A080E046E59
:10043C00D890053600360950005E0580D8B003D040
:10044C00059009500026042EF3D712000900F5CFB1
:10045C0005F0F5CFE7FF04D00900F550056E062630
:10046C000552D8B412000900F5CFE4FF052EFBD7D6
:10047C0012000C43617267616E646F202E2E2E0089
:10048C000B44697374616E6369613A2002636D0099
:020000040030CA
:0E00000000481F1EFF0381FF0FC00FE00F40DE
:00000001FF
