:020000040000FA
:0400000006EF00F017
:020008001000E6
:10000C0019D966D82CD903D9938093820C0E106E13
:10001C0061D817EEF3F0FC0EF66E040EF76E55DA9F
:10002C00F30E1E6E070E1F6E66D9040E266E6FDA67
:10003C0024C00DF025C00EF025D817EEF3F00A0EF3
:10004C00F66E050EF76E41DAF30E1E6E070E1F6E7E
:10005C0052D90DC015F00EC016F06BD917EEF3F097
:10006C00160EF66E050EF76E30DAF30E1E6E070ED8
:10007C001F6E41D9220E006E002EFED70000D5D780
:10008C000300FED71D92010E146EECD8040E026E06
:10009C00036A10D8800E146EE5D8210E006E002E67
:1000AC00FED71200050E006E002EFED70000052EA6
:1000BC00F9D71200032A040E016EA50E006E002E55
:1000CC00FED7012EFAD7022EF6D7032EF4D7120044
:1000DC00106A1200C78EC688C69E0C0E105CD8A47F
:1000EC0006D0C686C694C692C690040EC86E105230
:1000FC00D8A404D0C696C684C682C690030E105CE3
:10010C00D8A404D0C696C684C682C680C68A1200FD
:10011C00C69E12C0C9FF27D8C5AC02D00F6801D04B
:10012C000F6AC6AE04D010500A08D8B0F1D71050E0
:10013C000A08D8B0C688120010500A08D8B003D0EC
:10014C00C58011D802D0C7A6FED7120010500A08DD
:10015C00D8B006D0C7B4FED7C584C58404D802D0A5
:10016C00C7A8FED71200116A112AFF0E115CD8B075
:10017C0008D09EB605D00000000000000000F4D7A7
:10018C009E9612000F0E026E036A94DF136A030E22
:10019C00146E68D8050E026E036A8CDF030E146EA3
:1001AC0061D8010E026E036A85DF030E146E5AD8F5
:1001BC00010E026E036A7EDF030E146E53D8010E1D
:1001CC00026E036A77DF020E146E4CD8010E026EBB
:1001DC00036A70DF280E146E45D8010E026E036A96
:1001EC0069DF0C0E146E3ED8010E026E036A62DFDC
:1001FC00010E146E37D80F0E026E036A5BDF060E0B
:10020C00146E30D8010E026E036A54DF3BD70C0E0D
:10021C00106E60DF010E186E020E026E036A4ADF6A
:10022C00020E216E4E0E196EADDF212EFBD70C0E79
:10023C001A6E120000018F0ED316D38CD38AD3887A
:10024C00F86AC09EC290C186C184C182C180070E6B
:10025C00B46E806A816A826A836A846A1200949E90
:10026C00948C12001DA202D0138001D01390139213
:10027C00139618B0138660DF19C012F049DF139E75
:10028C0014BE138E139C14BC138C139A14BA138AB9
:10029C00139814B81388138413C012F039DF139415
:1002AC0013C012F035DF139E14B6138E139C14B4C6
:1002BC00138C139A14B2138A139814B013881384E2
:1002CC0013C012F025DF139413C012F021DF3EDFB0
:1002DC000C0E1A6E060E006E002EFED700001DB21C
:1002EC0009D0100E145CD8B005D014500708D8A053
:1002FC0014C01AF012001EC0E9FF1FC0EAFFEFCFB6
:10030C001BF01B52D8B412001D82206A010E1B5C1C
:10031C00D8A00ED0202A20501E24E96E000E1F20DB
:10032C00EA6EEFCF14F09EDF1B50205CD8A0F2D702
:10033C0012001D82176A15C005F016C006F0100ECB
:10034C00096E270E0A6E7FD8001E00A014D015C0AF
:10035C0005F016C006F0100E096E270E0A6E81D835
:10036C0005C017F000C015F001C016F0300E1724B0
:10037C00146E78DF0CD015C005F016C006F0E80E30
:10038C00096E030E0A6E5FD8001E00A014D015C0B3
:10039C0005F016C006F0E80E096E030E0A6E61D861
:1003AC0005C017F000C015F001C016F0300E172470
:1003BC00146E58DF0BD015C005F016C006F0640E95
:1003CC00096E0A6A40D8001E00A013D015C005F0B3
:1003DC0016C006F0640E096E0A6A43D805C017F001
:1003EC0000C015F001C016F0300E1724146E3ADF61
:1003FC000BD015C005F016C006F00A0E096E0A6A7D
:10040C0022D8001E00A012D015C005F016C006F0B0
:10041C000A0E096E0A6A25D805C017F000C015F03F
:10042C0001C016F0300E1724146E1CDF300E15248C
:10043C00146E18D7006A0950056212000A50066241
:10044C00120000681200006A06500A5CD8A0120064
:10045C000A50065C04E30950055CD8B01200001E7B
:10046C00120005C007F006C008F009C00BF00AC066
:10047C000CF0026A036A0BC005F00CC006F0096AA6
:10048C000A6AD8DF00A003D0056A066A1200100EB3
:10049C00046ED89007360836023603360B50025ECF
:1004AC000C50035A0780D8B005D007900B50022689
:1004BC000C500322042EEDD707C005F008C006F03F
:1004CC0002C000F003C001F012000900F5CF05F0E6
:1004DC00F5CFE7FF04D00900F550056E062605524E
:1004EC00D8B412000900F5CFE4FF052EFBD712009B
:1004FC000C43617267616E646F202E2E2E000B44CC
:10050C00697374616E6369613A2002636D00246AD9
:10051C00256A8B8E010E056EC5DD8B9E82ACFED7D7
:10052C0082AC12D0242AD8B4252A24C005F025C0C8
:10053C0006F0096A0A6A7EDF00B01200220E006E15
:0A054C00002EFED70000ECD71200CD
:020000040030CA
:0E00000000481F1EFF0381FF0FC00FE00F40DE
:00000001FF
