:020000040000FA
:0400000006EF00F017
:020008001000E6
:10000C00F0D850D938D8DAD8938093820C0E096E78
:10001C0034D813D817EEFBF0140EF66E030EF76EF1
:10002C0060D9FB0E156E070E166E3DD9FA0E026ED8
:10003C00036A13D8EED70300FED71492010E0E6E8E
:10004C00E8D8040E026E036A08D8800E0E6EE1D852
:10005C00850E006E002EFED71200032A0E0E016EC6
:10006C00BD0E006E002EFED7012EFAD7022EF6D74B
:10007C00032EF4D71200096A1200C78EC688C69EDA
:10008C000C0E095CD8A407D0C686C694C692C6903E
:10009C007F0E0B14C86E0952D8A404D0C696C68421
:1000AC00C682C690030E095CD8A404D0C696C6843A
:1000BC00C682C680C68A1200C69E0CC0C9FF27D84D
:1000CC00C5AC02D0046801D0046AC6AE04D0095095
:1000DC000A08D8B0F1D709500A08D8B0C68812005F
:1000EC0009500A08D8B003D0C58011D802D0C7A6D1
:1000FC00FED7120009500A08D8B006D0C7B4FED7F4
:10010C00C584C58404D802D0C7A8FED712000A6AD9
:10011C000A2AFF0E0A5CD8B008D09EB605D0050E90
:10012C00006E002EFED7F4D79E960A28D8B4A1965E
:10013C0012000F0E026E036A90DF0D6A030E0E6E34
:10014C0068D8050E026E036A88DF030E0E6E61D846
:10015C00010E026E036A81DF030E0E6E5AD8010E79
:10016C00026E036A7ADF030E0E6E53D8010E026E16
:10017C00036A73DF020E0E6E4CD8010E026E036A18
:10018C006CDF280E0E6E45D8010E026E036A65DF19
:10019C000C0E0E6E3ED8010E026E036A5EDF010E6F
:1001AC000E6E37D80F0E026E036A57DF060E0E6EF8
:1001BC0030D8010E026E036A50DF3FD70C0E096E69
:1001CC005CDF010E0F6E020E026E036A46DF020E3A
:1001DC00186E4E0E106EADDF182EFBD70C0E116E76
:1001EC0012000001D38CD38AD398D2889B9EF86AD4
:1001FC00C09EC2900F015B6B5C6B5D6B5E6B5F6B4B
:10020C00999E989E806A816A826A836A846A0001D8
:10021C00120014A202D00D8001D00D900D920D96FB
:10022C000FB00D865DDF10C00CF046DF0D9E0EBECC
:10023C000D8E0D9C0EBC0D8C0D9A0EBA0D8A0D9860
:10024C000EB80D880D840DC00CF036DF0D940DC06A
:10025C000CF032DF0D9E0EB60D8E0D9C0EB40D8C77
:10026C000D9A0EB20D8A0D980EB00D880D840DC02E
:10027C000CF022DF0D940DC00CF01EDF3BDF0C0EDA
:10028C00116E1A0E006E002EFED7000014B209D0AB
:10029C00100E0E5CD8B005D00E500708D8A00EC0BA
:1002AC0011F01200120015C0E9FF16C0EAFFEFCFE3
:1002BC0012F01252D8B412001482176A010E125C9A
:1002CC00D8A00ED0172A17501524E96E000E162050
:1002DC00EA6EEFCF0EF09DDF1250175CD8A0F2D76C
:1002EC0012000900F5CF05F0F5CFE7FF04D00900A7
:1002FC00F550056E06260552D8B412000900F5CF4C
:0E030C00E4FF052EFBD7120004686F6C610041
:020000040030CA
:0E00000000685F3CFF5381FF0FC00FE00F4010
:00000001FF
